:0100000030CF
:0100010004FA
:0100020030CD
:0100030004F8
:0100040030CB
:0100050004F6
:0100060030C9
:0100070004F4
:0100080030C7
:0100090004F2
:01000A0030C5
:01000B0004F0
:01000C0030C3
:01000D0004EE
:01000E0030C1
:01000F0004EC
:0100100030BF
:0100110004EA
:0100120030BD
:0100130004E8
:0100140030BB
:0100150004E6
:0100160030B9
:0100170004E4
:0100180030B7
:0100190004E2
:01001A0030B5
:01001B0004E0
:01001C0030B3
:01001D0004DE
:01001E0030B1
:01001F0004DC
:0100200030AF
:0100210004DA
:0100220030AD
:0100230004D8
:0100240030AB
:0100250004D6
:0100260030A9
:0100270004D4
:0100280030A7
:0100290004D2
:01002A0030A5
:01002B0004D0
:01002C0030A3
:01002D0004CE
:01002E0030A1
:01002F0004CC
:01003000309F
:0100310004CA
:01003200309D
:0100330004C8
:01003400309B
:0100350004C6
:010036003099
:0100370004C4
:010038003097
:0100390004C2
:01003A003095
:01003B0004C0
:01003C003093
:01003D0004BE
:01003E003091
:01003F0004BC
:01004000308F
:0100410004BA
:01004200308D
:0100430004B8
:01004400308B
:0100450004B6
:010046003089
:0100470004B4
:010048003087
:0100490004B2
:01004A003085
:01004B0004B0
:01004C003083
:01004D0004AE
:01004E003081
:01004F0004AC
:01005000307F
:0100510004AA
:01005200307D
:0100530004A8
:01005400307B
:0100550004A6
:010056003079
:0100570004A4
:010058003077
:0100590004A2
:01005A003075
:01005B0004A0
:01005C003073
:01005D00049E
:01005E003071
:01005F00049C
:01006000306F
:01006100049A
:01006200306D
:010063000498
:01006400306B
:010065000496
:010066003069
:010067000494
:010068003067
:010069000492
:01006A003065
:01006B000490
:01006C003063
:01006D00048E
:01006E003061
:01006F00048C
:01007000305F
:01007100048A
:01007200305D
:010073000488
:01007400305B
:010075000486
:010076003059
:010077000484
:010078003057
:010079000482
:01007A003055
:01007B000480
:01007C003053
:01007D00047E
:01007E003051
:01007F00047C
:01008000304F
:01008100047A
:01008200304D
:010083000478
:01008400304B
:010085000476
:010086003049
:010087000474
:010088003047
:010089000472
:01008A003045
:01008B000470
:01008C003043
:01008D00046E
:01008E003041
:01008F00046C
:01009000303F
:01009100046A
:01009200303D
:010093000468
:01009400303B
:010095000466
:010096003039
:010097000464
:010098003037
:010099000462
:01009A003035
:01009B000460
:01009C003033
:01009D00045E
:01009E003031
:01009F00045C
:0100A000302F
:0100A100045A
:0100A200302D
:0100A3000458
:0100A400302B
:0100A5000456
:0100A6003029
:0100A7000454
:0100A8003027
:0100A9000452
:0100AA003025
:0100AB000450
:0100AC003023
:0100AD00044E
:0100AE003021
:0100AF00044C
:0100B000301F
:0100B100044A
:0100B200301D
:0100B3000448
:0100B400301B
:0100B5000446
:0100B6003019
:0100B7000444
:0100B8003017
:0100B9000442
:0100BA003015
:0100BB000440
:0100BC003013
:0100BD00043E
:0100BE003011
:0100BF00043C
:0100C000300F
:0100C100043A
:0100C200300D
:0100C3000438
:0100C400300B
:0100C5000436
:0100C6003009
:0100C7000434
:0100C8003007
:0100C9000432
:0100CA003005
:0100CB000430
:0100CC003003
:0100CD00042E
:0100CE003001
:0100CF00042C
:0100D00030FF
:0100D100042A
:0100D20030FD
:0100D3000428
:0100D40030FB
:0100D5000426
:0100D60030F9
:0100D7000424
:0100D80030F7
:0100D9000422
:0100DA0030F5
:0100DB000420
:0100DC0030F3
:0100DD00041E
:0100DE0030F1
:0100DF00041C
:0100E00030EF
:0100E100041A
:0100E20030ED
:0100E3000418
:0100E40030EB
:0100E5000416
:0100E60030E9
:0100E7000414
:0100E80030E7
:0100E9000412
:0100EA0030E5
:0100EB000410
:0100EC0030E3
:0100ED00040E
:0100EE0030E1
:0100EF00040C
:0100F00030DF
:0100F100040A
:0100F20030DD
:0100F3000408
:0100F40030DB
:0100F5000406
:0100F60030D9
:0100F7000404
:0100F80030D7
:0100F9000402
:0100FA0030D5
:0100FB000400
:0100FC0030D3
:0100FD0004FE
:0100FE0030D1
:0100FF0004FC
:00000001FF
